{
  "_format": "hh-sol-artifact-1",
  "contractName": "MyEpicNFT",
  "sourceName": "contracts/MyEpicNTF.sol",
  "abi": [
    {
      "inputs": [],
      "stateMutability": "nonpayable",
      "type": "constructor"
    },
    {
      "anonymous": false,
      "inputs": [
        {
          "indexed": true,
          "internalType": "address",
          "name": "owner",
          "type": "address"
        },
        {
          "indexed": true,
          "internalType": "address",
          "name": "approved",
          "type": "address"
        },
        {
          "indexed": true,
          "internalType": "uint256",
          "name": "tokenId",
          "type": "uint256"
        }
      ],
      "name": "Approval",
      "type": "event"
    },
    {
      "anonymous": false,
      "inputs": [
        {
          "indexed": true,
          "internalType": "address",
          "name": "owner",
          "type": "address"
        },
        {
          "indexed": true,
          "internalType": "address",
          "name": "operator",
          "type": "address"
        },
        {
          "indexed": false,
          "internalType": "bool",
          "name": "approved",
          "type": "bool"
        }
      ],
      "name": "ApprovalForAll",
      "type": "event"
    },
    {
      "anonymous": false,
      "inputs": [
        {
          "indexed": false,
          "internalType": "address",
          "name": "sender",
          "type": "address"
        },
        {
          "indexed": false,
          "internalType": "uint256",
          "name": "tokenId",
          "type": "uint256"
        }
      ],
      "name": "NewEpicNFTMinted",
      "type": "event"
    },
    {
      "anonymous": false,
      "inputs": [
        {
          "indexed": true,
          "internalType": "address",
          "name": "from",
          "type": "address"
        },
        {
          "indexed": true,
          "internalType": "address",
          "name": "to",
          "type": "address"
        },
        {
          "indexed": true,
          "internalType": "uint256",
          "name": "tokenId",
          "type": "uint256"
        }
      ],
      "name": "Transfer",
      "type": "event"
    },
    {
      "inputs": [
        {
          "internalType": "address",
          "name": "to",
          "type": "address"
        },
        {
          "internalType": "uint256",
          "name": "tokenId",
          "type": "uint256"
        }
      ],
      "name": "approve",
      "outputs": [],
      "stateMutability": "nonpayable",
      "type": "function"
    },
    {
      "inputs": [
        {
          "internalType": "address",
          "name": "owner",
          "type": "address"
        }
      ],
      "name": "balanceOf",
      "outputs": [
        {
          "internalType": "uint256",
          "name": "",
          "type": "uint256"
        }
      ],
      "stateMutability": "view",
      "type": "function"
    },
    {
      "inputs": [
        {
          "internalType": "uint256",
          "name": "tokenId",
          "type": "uint256"
        }
      ],
      "name": "getApproved",
      "outputs": [
        {
          "internalType": "address",
          "name": "",
          "type": "address"
        }
      ],
      "stateMutability": "view",
      "type": "function"
    },
    {
      "inputs": [
        {
          "internalType": "address",
          "name": "owner",
          "type": "address"
        },
        {
          "internalType": "address",
          "name": "operator",
          "type": "address"
        }
      ],
      "name": "isApprovedForAll",
      "outputs": [
        {
          "internalType": "bool",
          "name": "",
          "type": "bool"
        }
      ],
      "stateMutability": "view",
      "type": "function"
    },
    {
      "inputs": [],
      "name": "makeAnEpicNFT",
      "outputs": [],
      "stateMutability": "nonpayable",
      "type": "function"
    },
    {
      "inputs": [],
      "name": "name",
      "outputs": [
        {
          "internalType": "string",
          "name": "",
          "type": "string"
        }
      ],
      "stateMutability": "view",
      "type": "function"
    },
    {
      "inputs": [
        {
          "internalType": "uint256",
          "name": "tokenId",
          "type": "uint256"
        }
      ],
      "name": "ownerOf",
      "outputs": [
        {
          "internalType": "address",
          "name": "",
          "type": "address"
        }
      ],
      "stateMutability": "view",
      "type": "function"
    },
    {
      "inputs": [
        {
          "internalType": "address",
          "name": "from",
          "type": "address"
        },
        {
          "internalType": "address",
          "name": "to",
          "type": "address"
        },
        {
          "internalType": "uint256",
          "name": "tokenId",
          "type": "uint256"
        }
      ],
      "name": "safeTransferFrom",
      "outputs": [],
      "stateMutability": "nonpayable",
      "type": "function"
    },
    {
      "inputs": [
        {
          "internalType": "address",
          "name": "from",
          "type": "address"
        },
        {
          "internalType": "address",
          "name": "to",
          "type": "address"
        },
        {
          "internalType": "uint256",
          "name": "tokenId",
          "type": "uint256"
        },
        {
          "internalType": "bytes",
          "name": "data",
          "type": "bytes"
        }
      ],
      "name": "safeTransferFrom",
      "outputs": [],
      "stateMutability": "nonpayable",
      "type": "function"
    },
    {
      "inputs": [
        {
          "internalType": "address",
          "name": "operator",
          "type": "address"
        },
        {
          "internalType": "bool",
          "name": "approved",
          "type": "bool"
        }
      ],
      "name": "setApprovalForAll",
      "outputs": [],
      "stateMutability": "nonpayable",
      "type": "function"
    },
    {
      "inputs": [
        {
          "internalType": "bytes4",
          "name": "interfaceId",
          "type": "bytes4"
        }
      ],
      "name": "supportsInterface",
      "outputs": [
        {
          "internalType": "bool",
          "name": "",
          "type": "bool"
        }
      ],
      "stateMutability": "view",
      "type": "function"
    },
    {
      "inputs": [],
      "name": "symbol",
      "outputs": [
        {
          "internalType": "string",
          "name": "",
          "type": "string"
        }
      ],
      "stateMutability": "view",
      "type": "function"
    },
    {
      "inputs": [
        {
          "internalType": "uint256",
          "name": "tokenId",
          "type": "uint256"
        }
      ],
      "name": "tokenURI",
      "outputs": [
        {
          "internalType": "string",
          "name": "",
          "type": "string"
        }
      ],
      "stateMutability": "view",
      "type": "function"
    },
    {
      "inputs": [
        {
          "internalType": "address",
          "name": "from",
          "type": "address"
        },
        {
          "internalType": "address",
          "name": "to",
          "type": "address"
        },
        {
          "internalType": "uint256",
          "name": "tokenId",
          "type": "uint256"
        }
      ],
      "name": "transferFrom",
      "outputs": [],
      "stateMutability": "nonpayable",
      "type": "function"
    }
  ],
  "bytecode": "0x608060405260405180610100016040528060d3815260200162004d8f60d39139600890816200002f91906200125a565b5060405180608001604052806057815260200162004e6260579139600990816200005a91906200125a565b506040518060400160405280600d81526020017f3c2f746578743e3c2f7376673e00000000000000000000000000000000000000815250600a9081620000a191906200125a565b50604051806101e001604052806040518060400160405280600981526020017f46616e746173746963000000000000000000000000000000000000000000000081525081526020016040518060400160405280600481526020017f457069630000000000000000000000000000000000000000000000000000000081525081526020016040518060400160405280600881526020017f5465727269626c6500000000000000000000000000000000000000000000000081525081526020016040518060400160405280600581526020017f4372617a7900000000000000000000000000000000000000000000000000000081525081526020016040518060400160405280600481526020017f57696c640000000000000000000000000000000000000000000000000000000081525081526020016040518060400160405280600a81526020017f54657272696679696e670000000000000000000000000000000000000000000081525081526020016040518060400160405280600681526020017f53706f6f6b79000000000000000000000000000000000000000000000000000081525081526020016040518060400160405280600881526020017f486f727269626c6500000000000000000000000000000000000000000000000081525081526020016040518060400160405280600581526020017f4769616e7400000000000000000000000000000000000000000000000000000081525081526020016040518060400160405280600581526020017f4c6f75647900000000000000000000000000000000000000000000000000000081525081526020016040518060400160405280600681526020017f496e73616e65000000000000000000000000000000000000000000000000000081525081526020016040518060400160405280600981526020017f54616c6b6174697665000000000000000000000000000000000000000000000081525081526020016040518060400160405280600781526020017f437572696f75730000000000000000000000000000000000000000000000000081525081526020016040518060400160405280600681526020017f48756e677279000000000000000000000000000000000000000000000000000081525081526020016040518060400160405280600681526020017f536c656570790000000000000000000000000000000000000000000000000000815250815250600b90600f6200043392919062000e93565b50604051806101e001604052806040518060400160405280600581526020017f50697a7a6100000000000000000000000000000000000000000000000000000081525081526020016040518060400160405280600781526020017f43757063616b650000000000000000000000000000000000000000000000000081525081526020016040518060400160405280600581526020017f4b6562616200000000000000000000000000000000000000000000000000000081525081526020016040518060400160405280600581526020017f506173746100000000000000000000000000000000000000000000000000000081525081526020016040518060400160405280600881526020017f546972616d69737500000000000000000000000000000000000000000000000081525081526020016040518060400160405280600981526020017f48616d627572676572000000000000000000000000000000000000000000000081525081526020016040518060400160405280600781526020017f506f70636f726e0000000000000000000000000000000000000000000000000081525081526020016040518060400160405280600881526020017f496365637265616d00000000000000000000000000000000000000000000000081525081526020016040518060400160405280600681526020017f486f74646f67000000000000000000000000000000000000000000000000000081525081526020016040518060400160405280600681526020017f48756d6d7573000000000000000000000000000000000000000000000000000081525081526020016040518060400160405280600681526020017f436865657365000000000000000000000000000000000000000000000000000081525081526020016040518060400160405280600581526020017f427265616400000000000000000000000000000000000000000000000000000081525081526020016040518060400160405280600581526020017f537573686900000000000000000000000000000000000000000000000000000081525081526020016040518060400160405280600581526020017f4c616d656e00000000000000000000000000000000000000000000000000000081525081526020016040518060400160405280600981526020017f43726f697373616e740000000000000000000000000000000000000000000000815250815250600c90600f620007c592919062000e93565b50604051806101e001604052806040518060400160405280600681526020017f476f6c6c756d000000000000000000000000000000000000000000000000000081525081526020016040518060400160405280600581526020017f42696c626f00000000000000000000000000000000000000000000000000000081525081526020016040518060400160405280600781526020017f47616e64616c660000000000000000000000000000000000000000000000000081525081526020016040518060400160405280600681526020017f536175726f6e000000000000000000000000000000000000000000000000000081525081526020016040518060400160405280600981526020017f47616c61647269656c000000000000000000000000000000000000000000000081525081526020016040518060400160405280600681526020017f456c726f6e64000000000000000000000000000000000000000000000000000081525081526020016040518060400160405280600581526020017f47696d6c6900000000000000000000000000000000000000000000000000000081525081526020016040518060400160405280600581526020017f46726f646f00000000000000000000000000000000000000000000000000000081525081526020016040518060400160405280600381526020017f53616d000000000000000000000000000000000000000000000000000000000081525081526020016040518060400160405280600781526020017f417261676f726e0000000000000000000000000000000000000000000000000081525081526020016040518060400160405280600881526020017f41726174686f726e00000000000000000000000000000000000000000000000081525081526020016040518060400160405280600781526020017f456c656e64696c0000000000000000000000000000000000000000000000000081525081526020016040518060400160405280600781526020017f536172756d616e0000000000000000000000000000000000000000000000000081525081526020016040518060400160405280600781526020017f4c65676f6c61730000000000000000000000000000000000000000000000000081525081526020016040518060400160405280600681526020017f50697070696e0000000000000000000000000000000000000000000000000000815250815250600d90600f62000b5792919062000e93565b506040518060c001604052806040518060400160405280600581526020017f626c61636b00000000000000000000000000000000000000000000000000000081525081526020016040518060400160405280600981526020017f6461726b677265656e000000000000000000000000000000000000000000000081525081526020016040518060400160405280600881526020017f6461726b626c756500000000000000000000000000000000000000000000000081525081526020016040518060400160405280600781526020017f6461726b7265640000000000000000000000000000000000000000000000000081525081526020016040518060400160405280600881526020017f6461726b6772617900000000000000000000000000000000000000000000000081525081526020016040518060400160405280600a81526020017f6461726b6f72616e676500000000000000000000000000000000000000000000815250815250600e90600662000cd592919062000ef3565b5034801562000ce357600080fd5b506040518060400160405280600981526020017f5371756172654e465400000000000000000000000000000000000000000000008152506040518060400160405280600681526020017f5351554152450000000000000000000000000000000000000000000000000000815250816000908162000d6191906200125a565b50806001908162000d7391906200125a565b50505062000dc16040518060400160405280601e81526020017f54686973206973206d79204e465420636f6e7472616374212057686f6121000081525062000dc760201b62000b931760201c565b620013f4565b62000e678160405160240162000dde9190620013d0565b6040516020818303038152906040527f41304fac000000000000000000000000000000000000000000000000000000007bffffffffffffffffffffffffffffffffffffffffffffffffffffffff19166020820180517bffffffffffffffffffffffffffffffffffffffffffffffffffffffff838183161783525050505062000e6a60201b60201c565b50565b60008151905060006a636f6e736f6c652e6c6f679050602083016000808483855afa5050505050565b82805482825590600052602060002090810192821562000ee0579160200282015b8281111562000edf57825182908162000ece91906200125a565b509160200191906001019062000eb4565b5b50905062000eef919062000f53565b5090565b82805482825590600052602060002090810192821562000f40579160200282015b8281111562000f3f57825182908162000f2e91906200125a565b509160200191906001019062000f14565b5b50905062000f4f919062000f53565b5090565b5b8082111562000f77576000818162000f6d919062000f7b565b5060010162000f54565b5090565b50805462000f899062001049565b6000825580601f1062000f9d575062000fbe565b601f01602090049060005260206000209081019062000fbd919062000fc1565b5b50565b5b8082111562000fdc57600081600090555060010162000fc2565b5090565b600081519050919050565b7f4e487b7100000000000000000000000000000000000000000000000000000000600052604160045260246000fd5b7f4e487b7100000000000000000000000000000000000000000000000000000000600052602260045260246000fd5b600060028204905060018216806200106257607f821691505b6020821081036200107857620010776200101a565b5b50919050565b60008190508160005260206000209050919050565b60006020601f8301049050919050565b600082821b905092915050565b600060088302620010e27fffffffffffffffffffffffffffffffffffffffffffffffffffffffffffffffff82620010a3565b620010ee8683620010a3565b95508019841693508086168417925050509392505050565b6000819050919050565b6000819050919050565b60006200113b620011356200112f8462001106565b62001110565b62001106565b9050919050565b6000819050919050565b62001157836200111a565b6200116f620011668262001142565b848454620010b0565b825550505050565b600090565b6200118662001177565b620011938184846200114c565b505050565b5b81811015620011bb57620011af6000826200117c565b60018101905062001199565b5050565b601f8211156200120a57620011d4816200107e565b620011df8462001093565b81016020851015620011ef578190505b62001207620011fe8562001093565b83018262001198565b50505b505050565b600082821c905092915050565b60006200122f600019846008026200120f565b1980831691505092915050565b60006200124a83836200121c565b9150826002028217905092915050565b620012658262000fe0565b67ffffffffffffffff81111562001281576200128062000feb565b5b6200128d825462001049565b6200129a828285620011bf565b600060209050601f831160018114620012d25760008415620012bd578287015190505b620012c985826200123c565b86555062001339565b601f198416620012e2866200107e565b60005b828110156200130c57848901518255600182019150602085019450602081019050620012e5565b868310156200132c578489015162001328601f8916826200121c565b8355505b6001600288020188555050505b505050505050565b600082825260208201905092915050565b60005b838110156200137257808201518184015260208101905062001355565b60008484015250505050565b6000601f19601f8301169050919050565b60006200139c8262000fe0565b620013a8818562001341565b9350620013ba81856020860162001352565b620013c5816200137e565b840191505092915050565b60006020820190508181036000830152620013ec81846200138f565b905092915050565b61398b80620014046000396000f3fe608060405234801561001057600080fd5b50600436106100ea5760003560e01c806370a082311161008c578063b88d4fde11610066578063b88d4fde1461025b578063c87b56dd14610277578063de9d132f146102a7578063e985e9c5146102b1576100ea565b806370a08231146101f157806395d89b4114610221578063a22cb4651461023f576100ea565b8063095ea7b3116100c8578063095ea7b31461016d57806323b872dd1461018957806342842e0e146101a55780636352211e146101c1576100ea565b806301ffc9a7146100ef57806306fdde031461011f578063081812fc1461013d575b600080fd5b61010960048036038101906101049190612163565b6102e1565b60405161011691906121ab565b60405180910390f35b6101276103c3565b6040516101349190612256565b60405180910390f35b610157600480360381019061015291906122ae565b610455565b604051610164919061231c565b60405180910390f35b61018760048036038101906101829190612363565b61049b565b005b6101a3600480360381019061019e91906123a3565b6105b2565b005b6101bf60048036038101906101ba91906123a3565b610612565b005b6101db60048036038101906101d691906122ae565b610632565b6040516101e8919061231c565b60405180910390f35b61020b600480360381019061020691906123f6565b6106e3565b6040516102189190612432565b60405180910390f35b61022961079a565b6040516102369190612256565b60405180910390f35b61025960048036038101906102549190612479565b61082c565b005b610275600480360381019061027091906125ee565b610842565b005b610291600480360381019061028c91906122ae565b6108a4565b60405161029e9190612256565b60405180910390f35b6102af6109b6565b005b6102cb60048036038101906102c69190612671565b610aff565b6040516102d891906121ab565b60405180910390f35b60007f80ac58cd000000000000000000000000000000000000000000000000000000007bffffffffffffffffffffffffffffffffffffffffffffffffffffffff1916827bffffffffffffffffffffffffffffffffffffffffffffffffffffffff191614806103ac57507f5b5e139f000000000000000000000000000000000000000000000000000000007bffffffffffffffffffffffffffffffffffffffffffffffffffffffff1916827bffffffffffffffffffffffffffffffffffffffffffffffffffffffff1916145b806103bc57506103bb82610c2c565b5b9050919050565b6060600080546103d2906126e0565b80601f01602080910402602001604051908101604052809291908181526020018280546103fe906126e0565b801561044b5780601f106104205761010080835404028352916020019161044b565b820191906000526020600020905b81548152906001019060200180831161042e57829003601f168201915b5050505050905090565b600061046082610c96565b6004600083815260200190815260200160002060009054906101000a900473ffffffffffffffffffffffffffffffffffffffff169050919050565b60006104a682610632565b90508073ffffffffffffffffffffffffffffffffffffffff168373ffffffffffffffffffffffffffffffffffffffff1603610516576040517f08c379a000000000000000000000000000000000000000000000000000000000815260040161050d90612783565b60405180910390fd5b8073ffffffffffffffffffffffffffffffffffffffff16610535610ce1565b73ffffffffffffffffffffffffffffffffffffffff16148061056457506105638161055e610ce1565b610aff565b5b6105a3576040517f08c379a000000000000000000000000000000000000000000000000000000000815260040161059a90612815565b60405180910390fd5b6105ad8383610ce9565b505050565b6105c36105bd610ce1565b82610da2565b610602576040517f08c379a00000000000000000000000000000000000000000000000000000000081526004016105f9906128a7565b60405180910390fd5b61060d838383610e37565b505050565b61062d83838360405180602001604052806000815250610842565b505050565b6000806002600084815260200190815260200160002060009054906101000a900473ffffffffffffffffffffffffffffffffffffffff169050600073ffffffffffffffffffffffffffffffffffffffff168173ffffffffffffffffffffffffffffffffffffffff16036106da576040517f08c379a00000000000000000000000000000000000000000000000000000000081526004016106d190612913565b60405180910390fd5b80915050919050565b60008073ffffffffffffffffffffffffffffffffffffffff168273ffffffffffffffffffffffffffffffffffffffff1603610753576040517f08c379a000000000000000000000000000000000000000000000000000000000815260040161074a906129a5565b60405180910390fd5b600360008373ffffffffffffffffffffffffffffffffffffffff1673ffffffffffffffffffffffffffffffffffffffff168152602001908152602001600020549050919050565b6060600180546107a9906126e0565b80601f01602080910402602001604051908101604052809291908181526020018280546107d5906126e0565b80156108225780601f106107f757610100808354040283529160200191610822565b820191906000526020600020905b81548152906001019060200180831161080557829003601f168201915b5050505050905090565b61083e610837610ce1565b838361109d565b5050565b61085361084d610ce1565b83610da2565b610892576040517f08c379a0000000000000000000000000000000000000000000000000000000008152600401610889906128a7565b60405180910390fd5b61089e84848484611209565b50505050565b60606108af82610c96565b60006006600084815260200190815260200160002080546108cf906126e0565b80601f01602080910402602001604051908101604052809291908181526020018280546108fb906126e0565b80156109485780601f1061091d57610100808354040283529160200191610948565b820191906000526020600020905b81548152906001019060200180831161092b57829003601f168201915b505050505090506000610959611265565b9050600081510361096e5781925050506109b1565b6000825111156109a357808260405160200161098b929190612a01565b604051602081830303815290604052925050506109b1565b6109ac8461127c565b925050505b919050565b60006109c260076112e4565b90506109ce33826112f2565b60006109d982611310565b905060006109e683611408565b905060006109f384611500565b90506000610a00856115f8565b90506000848484604051602001610a1993929190612a25565b60405160208183030381529060405290506000610a3683836116f0565b90506000610a448284611725565b9050610a856040518060400160405280600f81526020017f546f6b656e20555249206973202573000000000000000000000000000000000081525082611792565b610a8f888261182e565b610ab26040518060600160405280602581526020016138f160259139893361189b565b610abc600761193a565b7febb98688741ffa4c7589bf325de30cf7becb63de567842e1ccdb6cb949fdc82c3389604051610aed929190612a56565b60405180910390a15050505050505050565b6000600560008473ffffffffffffffffffffffffffffffffffffffff1673ffffffffffffffffffffffffffffffffffffffff16815260200190815260200160002060008373ffffffffffffffffffffffffffffffffffffffff1673ffffffffffffffffffffffffffffffffffffffff16815260200190815260200160002060009054906101000a900460ff16905092915050565b610c2981604051602401610ba79190612256565b6040516020818303038152906040527f41304fac000000000000000000000000000000000000000000000000000000007bffffffffffffffffffffffffffffffffffffffffffffffffffffffff19166020820180517bffffffffffffffffffffffffffffffffffffffffffffffffffffffff8381831617835250505050611950565b50565b60007f01ffc9a7000000000000000000000000000000000000000000000000000000007bffffffffffffffffffffffffffffffffffffffffffffffffffffffff1916827bffffffffffffffffffffffffffffffffffffffffffffffffffffffff1916149050919050565b610c9f81611979565b610cde576040517f08c379a0000000000000000000000000000000000000000000000000000000008152600401610cd590612913565b60405180910390fd5b50565b600033905090565b816004600083815260200190815260200160002060006101000a81548173ffffffffffffffffffffffffffffffffffffffff021916908373ffffffffffffffffffffffffffffffffffffffff160217905550808273ffffffffffffffffffffffffffffffffffffffff16610d5c83610632565b73ffffffffffffffffffffffffffffffffffffffff167f8c5be1e5ebec7d5bd14f71427d1e84f3dd0314c0f7b2291e5b200ac8c7c3b92560405160405180910390a45050565b600080610dae83610632565b90508073ffffffffffffffffffffffffffffffffffffffff168473ffffffffffffffffffffffffffffffffffffffff161480610df05750610def8185610aff565b5b80610e2e57508373ffffffffffffffffffffffffffffffffffffffff16610e1684610455565b73ffffffffffffffffffffffffffffffffffffffff16145b91505092915050565b8273ffffffffffffffffffffffffffffffffffffffff16610e5782610632565b73ffffffffffffffffffffffffffffffffffffffff1614610ead576040517f08c379a0000000000000000000000000000000000000000000000000000000008152600401610ea490612af1565b60405180910390fd5b600073ffffffffffffffffffffffffffffffffffffffff168273ffffffffffffffffffffffffffffffffffffffff1603610f1c576040517f08c379a0000000000000000000000000000000000000000000000000000000008152600401610f1390612b83565b60405180910390fd5b610f278383836119e5565b610f32600082610ce9565b6001600360008573ffffffffffffffffffffffffffffffffffffffff1673ffffffffffffffffffffffffffffffffffffffff1681526020019081526020016000206000828254610f829190612bd2565b925050819055506001600360008473ffffffffffffffffffffffffffffffffffffffff1673ffffffffffffffffffffffffffffffffffffffff1681526020019081526020016000206000828254610fd99190612c06565b92505081905550816002600083815260200190815260200160002060006101000a81548173ffffffffffffffffffffffffffffffffffffffff021916908373ffffffffffffffffffffffffffffffffffffffff160217905550808273ffffffffffffffffffffffffffffffffffffffff168473ffffffffffffffffffffffffffffffffffffffff167fddf252ad1be2c89b69c2b068fc378daa952ba7f163c4a11628f55a4df523b3ef60405160405180910390a46110988383836119ea565b505050565b8173ffffffffffffffffffffffffffffffffffffffff168373ffffffffffffffffffffffffffffffffffffffff160361110b576040517f08c379a000000000000000000000000000000000000000000000000000000000815260040161110290612c86565b60405180910390fd5b80600560008573ffffffffffffffffffffffffffffffffffffffff1673ffffffffffffffffffffffffffffffffffffffff16815260200190815260200160002060008473ffffffffffffffffffffffffffffffffffffffff1673ffffffffffffffffffffffffffffffffffffffff16815260200190815260200160002060006101000a81548160ff0219169083151502179055508173ffffffffffffffffffffffffffffffffffffffff168373ffffffffffffffffffffffffffffffffffffffff167f17307eab39ab6107e8899845ad3d59bd9653f200f220920489ca2b5937696c31836040516111fc91906121ab565b60405180910390a3505050565b611214848484610e37565b611220848484846119ef565b61125f576040517f08c379a000000000000000000000000000000000000000000000000000000000815260040161125690612d18565b60405180910390fd5b50505050565b606060405180602001604052806000815250905090565b606061128782610c96565b6000611291611265565b905060008151116112b157604051806020016040528060008152506112dc565b806112bb84611b76565b6040516020016112cc929190612a01565b6040516020818303038152906040525b915050919050565b600081600001549050919050565b61130c828260405180602001604052806000815250611cd6565b5050565b6060600061134461132084611b76565b6040516020016113309190612d84565b604051602081830303815290604052611d31565b9050600b80549050816113579190612dd5565b9050600b818154811061136d5761136c612e06565b5b906000526020600020018054611382906126e0565b80601f01602080910402602001604051908101604052809291908181526020018280546113ae906126e0565b80156113fb5780601f106113d0576101008083540402835291602001916113fb565b820191906000526020600020905b8154815290600101906020018083116113de57829003601f168201915b5050505050915050919050565b6060600061143c61141884611b76565b6040516020016114289190612e81565b604051602081830303815290604052611d31565b9050600c805490508161144f9190612dd5565b9050600c818154811061146557611464612e06565b5b90600052602060002001805461147a906126e0565b80601f01602080910402602001604051908101604052809291908181526020018280546114a6906126e0565b80156114f35780601f106114c8576101008083540402835291602001916114f3565b820191906000526020600020905b8154815290600101906020018083116114d657829003601f168201915b5050505050915050919050565b6060600061153461151084611b76565b6040516020016115209190612eef565b604051602081830303815290604052611d31565b9050600d80549050816115479190612dd5565b9050600d818154811061155d5761155c612e06565b5b906000526020600020018054611572906126e0565b80601f016020809104026020016040519081016040528092919081815260200182805461159e906126e0565b80156115eb5780601f106115c0576101008083540402835291602001916115eb565b820191906000526020600020905b8154815290600101906020018083116115ce57829003601f168201915b5050505050915050919050565b6060600061162c61160884611b76565b6040516020016116189190612f5d565b604051602081830303815290604052611d31565b9050600e805490508161163f9190612dd5565b9050600e818154811061165557611654612e06565b5b90600052602060002001805461166a906126e0565b80601f0160208091040260200160405190810160405280929190818152602001828054611696906126e0565b80156116e35780601f106116b8576101008083540402835291602001916116e3565b820191906000526020600020905b8154815290600101906020018083116116c657829003601f168201915b5050505050915050919050565b6060600883600984600a60405160200161170e959493929190613017565b604051602081830303815290604052905092915050565b6060600061173284611d64565b90506000838260405160200161174992919061322a565b6040516020818303038152906040529050600061176582611d64565b90508060405160200161177891906132d1565b604051602081830303815290604052935050505092915050565b61182a82826040516024016117a89291906132f3565b6040516020818303038152906040527f4b5c4277000000000000000000000000000000000000000000000000000000007bffffffffffffffffffffffffffffffffffffffffffffffffffffffff19166020820180517bffffffffffffffffffffffffffffffffffffffffffffffffffffffff8381831617835250505050611950565b5050565b61183782611979565b611876576040517f08c379a000000000000000000000000000000000000000000000000000000000815260040161186d9061339c565b60405180910390fd5b806006600084815260200190815260200160002090816118969190613553565b505050565b6119358383836040516024016118b393929190613625565b6040516020818303038152906040527f1c7ec448000000000000000000000000000000000000000000000000000000007bffffffffffffffffffffffffffffffffffffffffffffffffffffffff19166020820180517bffffffffffffffffffffffffffffffffffffffffffffffffffffffff8381831617835250505050611950565b505050565b6001816000016000828254019250508190555050565b60008151905060006a636f6e736f6c652e6c6f679050602083016000808483855afa5050505050565b60008073ffffffffffffffffffffffffffffffffffffffff166002600084815260200190815260200160002060009054906101000a900473ffffffffffffffffffffffffffffffffffffffff1673ffffffffffffffffffffffffffffffffffffffff1614159050919050565b505050565b505050565b6000611a108473ffffffffffffffffffffffffffffffffffffffff16611efb565b15611b69578373ffffffffffffffffffffffffffffffffffffffff1663150b7a02611a39610ce1565b8786866040518563ffffffff1660e01b8152600401611a5b94939291906136b8565b6020604051808303816000875af1925050508015611a9757506040513d601f19601f82011682018060405250810190611a949190613719565b60015b611b19573d8060008114611ac7576040519150601f19603f3d011682016040523d82523d6000602084013e611acc565b606091505b506000815103611b11576040517f08c379a0000000000000000000000000000000000000000000000000000000008152600401611b0890612d18565b60405180910390fd5b805181602001fd5b63150b7a0260e01b7bffffffffffffffffffffffffffffffffffffffffffffffffffffffff1916817bffffffffffffffffffffffffffffffffffffffffffffffffffffffff191614915050611b6e565b600190505b949350505050565b606060008203611bbd576040518060400160405280600181526020017f30000000000000000000000000000000000000000000000000000000000000008152509050611cd1565b600082905060005b60008214611bef578080611bd890613746565b915050600a82611be8919061378e565b9150611bc5565b60008167ffffffffffffffff811115611c0b57611c0a6124c3565b5b6040519080825280601f01601f191660200182016040528015611c3d5781602001600182028036833780820191505090505b5090505b60008514611cca57600182611c569190612bd2565b9150600a85611c659190612dd5565b6030611c719190612c06565b60f81b818381518110611c8757611c86612e06565b5b60200101907effffffffffffffffffffffffffffffffffffffffffffffffffffffffffffff1916908160001a905350600a85611cc3919061378e565b9450611c41565b8093505050505b919050565b611ce08383611f1e565b611ced60008484846119ef565b611d2c576040517f08c379a0000000000000000000000000000000000000000000000000000000008152600401611d2390612d18565b60405180910390fd5b505050565b600081604051602001611d4491906137bf565b6040516020818303038152906040528051906020012060001c9050919050565b606060008251905060008103611d8c5760405180602001604052806000815250915050611ef6565b60006003600283611d9d9190612c06565b611da7919061378e565b6004611db391906137d6565b90506000602082611dc49190612c06565b67ffffffffffffffff811115611ddd57611ddc6124c3565b5b6040519080825280601f01601f191660200182016040528015611e0f5781602001600182028036833780820191505090505b5090506000604051806060016040528060408152602001613916604091399050600181016020830160005b86811015611eb35760038101905062ffffff818a015116603f8160121c168401518060081b905060ff603f83600c1c1686015116810190508060081b905060ff603f8360061c1686015116810190508060081b905060ff603f831686015116810190508060e01b90508084526004840193505050611e3a565b506003860660018114611ecd5760028114611edd57611ee8565b613d3d60f01b6002830352611ee8565b603d60f81b60018303525b508484525050819450505050505b919050565b6000808273ffffffffffffffffffffffffffffffffffffffff163b119050919050565b600073ffffffffffffffffffffffffffffffffffffffff168273ffffffffffffffffffffffffffffffffffffffff1603611f8d576040517f08c379a0000000000000000000000000000000000000000000000000000000008152600401611f8490613864565b60405180910390fd5b611f9681611979565b15611fd6576040517f08c379a0000000000000000000000000000000000000000000000000000000008152600401611fcd906138d0565b60405180910390fd5b611fe2600083836119e5565b6001600360008473ffffffffffffffffffffffffffffffffffffffff1673ffffffffffffffffffffffffffffffffffffffff16815260200190815260200160002060008282546120329190612c06565b92505081905550816002600083815260200190815260200160002060006101000a81548173ffffffffffffffffffffffffffffffffffffffff021916908373ffffffffffffffffffffffffffffffffffffffff160217905550808273ffffffffffffffffffffffffffffffffffffffff16600073ffffffffffffffffffffffffffffffffffffffff167fddf252ad1be2c89b69c2b068fc378daa952ba7f163c4a11628f55a4df523b3ef60405160405180910390a46120f3600083836119ea565b5050565b6000604051905090565b600080fd5b600080fd5b60007fffffffff0000000000000000000000000000000000000000000000000000000082169050919050565b6121408161210b565b811461214b57600080fd5b50565b60008135905061215d81612137565b92915050565b60006020828403121561217957612178612101565b5b60006121878482850161214e565b91505092915050565b60008115159050919050565b6121a581612190565b82525050565b60006020820190506121c0600083018461219c565b92915050565b600081519050919050565b600082825260208201905092915050565b60005b838110156122005780820151818401526020810190506121e5565b60008484015250505050565b6000601f19601f8301169050919050565b6000612228826121c6565b61223281856121d1565b93506122428185602086016121e2565b61224b8161220c565b840191505092915050565b60006020820190508181036000830152612270818461221d565b905092915050565b6000819050919050565b61228b81612278565b811461229657600080fd5b50565b6000813590506122a881612282565b92915050565b6000602082840312156122c4576122c3612101565b5b60006122d284828501612299565b91505092915050565b600073ffffffffffffffffffffffffffffffffffffffff82169050919050565b6000612306826122db565b9050919050565b612316816122fb565b82525050565b6000602082019050612331600083018461230d565b92915050565b612340816122fb565b811461234b57600080fd5b50565b60008135905061235d81612337565b92915050565b6000806040838503121561237a57612379612101565b5b60006123888582860161234e565b925050602061239985828601612299565b9150509250929050565b6000806000606084860312156123bc576123bb612101565b5b60006123ca8682870161234e565b93505060206123db8682870161234e565b92505060406123ec86828701612299565b9150509250925092565b60006020828403121561240c5761240b612101565b5b600061241a8482850161234e565b91505092915050565b61242c81612278565b82525050565b60006020820190506124476000830184612423565b92915050565b61245681612190565b811461246157600080fd5b50565b6000813590506124738161244d565b92915050565b600080604083850312156124905761248f612101565b5b600061249e8582860161234e565b92505060206124af85828601612464565b9150509250929050565b600080fd5b600080fd5b7f4e487b7100000000000000000000000000000000000000000000000000000000600052604160045260246000fd5b6124fb8261220c565b810181811067ffffffffffffffff8211171561251a576125196124c3565b5b80604052505050565b600061252d6120f7565b905061253982826124f2565b919050565b600067ffffffffffffffff821115612559576125586124c3565b5b6125628261220c565b9050602081019050919050565b82818337600083830152505050565b600061259161258c8461253e565b612523565b9050828152602081018484840111156125ad576125ac6124be565b5b6125b884828561256f565b509392505050565b600082601f8301126125d5576125d46124b9565b5b81356125e584826020860161257e565b91505092915050565b6000806000806080858703121561260857612607612101565b5b60006126168782880161234e565b94505060206126278782880161234e565b935050604061263887828801612299565b925050606085013567ffffffffffffffff81111561265957612658612106565b5b612665878288016125c0565b91505092959194509250565b6000806040838503121561268857612687612101565b5b60006126968582860161234e565b92505060206126a78582860161234e565b9150509250929050565b7f4e487b7100000000000000000000000000000000000000000000000000000000600052602260045260246000fd5b600060028204905060018216806126f857607f821691505b60208210810361270b5761270a6126b1565b5b50919050565b7f4552433732313a20617070726f76616c20746f2063757272656e74206f776e6560008201527f7200000000000000000000000000000000000000000000000000000000000000602082015250565b600061276d6021836121d1565b915061277882612711565b604082019050919050565b6000602082019050818103600083015261279c81612760565b9050919050565b7f4552433732313a20617070726f76652063616c6c6572206973206e6f7420746f60008201527f6b656e206f776e6572206e6f7220617070726f76656420666f7220616c6c0000602082015250565b60006127ff603e836121d1565b915061280a826127a3565b604082019050919050565b6000602082019050818103600083015261282e816127f2565b9050919050565b7f4552433732313a2063616c6c6572206973206e6f7420746f6b656e206f776e6560008201527f72206e6f7220617070726f766564000000000000000000000000000000000000602082015250565b6000612891602e836121d1565b915061289c82612835565b604082019050919050565b600060208201905081810360008301526128c081612884565b9050919050565b7f4552433732313a20696e76616c696420746f6b656e2049440000000000000000600082015250565b60006128fd6018836121d1565b9150612908826128c7565b602082019050919050565b6000602082019050818103600083015261292c816128f0565b9050919050565b7f4552433732313a2061646472657373207a65726f206973206e6f74206120766160008201527f6c6964206f776e65720000000000000000000000000000000000000000000000602082015250565b600061298f6029836121d1565b915061299a82612933565b604082019050919050565b600060208201905081810360008301526129be81612982565b9050919050565b600081905092915050565b60006129db826121c6565b6129e581856129c5565b93506129f58185602086016121e2565b80840191505092915050565b6000612a0d82856129d0565b9150612a1982846129d0565b91508190509392505050565b6000612a3182866129d0565b9150612a3d82856129d0565b9150612a4982846129d0565b9150819050949350505050565b6000604082019050612a6b600083018561230d565b612a786020830184612423565b9392505050565b7f4552433732313a207472616e736665722066726f6d20696e636f72726563742060008201527f6f776e6572000000000000000000000000000000000000000000000000000000602082015250565b6000612adb6025836121d1565b9150612ae682612a7f565b604082019050919050565b60006020820190508181036000830152612b0a81612ace565b9050919050565b7f4552433732313a207472616e7366657220746f20746865207a65726f2061646460008201527f7265737300000000000000000000000000000000000000000000000000000000602082015250565b6000612b6d6024836121d1565b9150612b7882612b11565b604082019050919050565b60006020820190508181036000830152612b9c81612b60565b9050919050565b7f4e487b7100000000000000000000000000000000000000000000000000000000600052601160045260246000fd5b6000612bdd82612278565b9150612be883612278565b9250828203905081811115612c0057612bff612ba3565b5b92915050565b6000612c1182612278565b9150612c1c83612278565b9250828201905080821115612c3457612c33612ba3565b5b92915050565b7f4552433732313a20617070726f766520746f2063616c6c657200000000000000600082015250565b6000612c706019836121d1565b9150612c7b82612c3a565b602082019050919050565b60006020820190508181036000830152612c9f81612c63565b9050919050565b7f4552433732313a207472616e7366657220746f206e6f6e20455243373231526560008201527f63656976657220696d706c656d656e7465720000000000000000000000000000602082015250565b6000612d026032836121d1565b9150612d0d82612ca6565b604082019050919050565b60006020820190508181036000830152612d3181612cf5565b9050919050565b7f46495253545f574f524400000000000000000000000000000000000000000000600082015250565b6000612d6e600a836129c5565b9150612d7982612d38565b600a82019050919050565b6000612d8f82612d61565b9150612d9b82846129d0565b915081905092915050565b7f4e487b7100000000000000000000000000000000000000000000000000000000600052601260045260246000fd5b6000612de082612278565b9150612deb83612278565b925082612dfb57612dfa612da6565b5b828206905092915050565b7f4e487b7100000000000000000000000000000000000000000000000000000000600052603260045260246000fd5b7f5345434f4e445f574f5244000000000000000000000000000000000000000000600082015250565b6000612e6b600b836129c5565b9150612e7682612e35565b600b82019050919050565b6000612e8c82612e5e565b9150612e9882846129d0565b915081905092915050565b7f54484952445f574f524400000000000000000000000000000000000000000000600082015250565b6000612ed9600a836129c5565b9150612ee482612ea3565b600a82019050919050565b6000612efa82612ecc565b9150612f0682846129d0565b915081905092915050565b7f434f4c4f52000000000000000000000000000000000000000000000000000000600082015250565b6000612f476005836129c5565b9150612f5282612f11565b600582019050919050565b6000612f6882612f3a565b9150612f7482846129d0565b915081905092915050565b60008190508160005260206000209050919050565b60008154612fa1816126e0565b612fab81866129c5565b94506001821660008114612fc65760018114612fdb5761300e565b60ff198316865281151582028601935061300e565b612fe485612f7f565b60005b8381101561300657815481890152600182019150602081019050612fe7565b838801955050505b50505092915050565b60006130238288612f94565b915061302f82876129d0565b915061303b8286612f94565b915061304782856129d0565b91506130538284612f94565b91508190509695505050505050565b7f7b226e616d65223a220000000000000000000000000000000000000000000000600082015250565b60006130986009836129c5565b91506130a382613062565b600982019050919050565b7f222c000000000000000000000000000000000000000000000000000000000000600082015250565b60006130e46002836129c5565b91506130ef826130ae565b600282019050919050565b7f226465736372697074696f6e223a20224120686967686c79206163636c61696d60008201527f656420636f6c6c656374696f6e206f6620737175617265732e222c0000000000602082015250565b6000613156603b836129c5565b9150613161826130fa565b603b82019050919050565b7f22696d616765223a22646174613a696d6167652f7376672b786d6c3b6261736560008201527f36342c0000000000000000000000000000000000000000000000000000000000602082015250565b60006131c86023836129c5565b91506131d38261316c565b602382019050919050565b7f227d000000000000000000000000000000000000000000000000000000000000600082015250565b60006132146002836129c5565b915061321f826131de565b600282019050919050565b60006132358261308b565b915061324182856129d0565b915061324c826130d7565b915061325782613149565b9150613262826131bb565b915061326e82846129d0565b915061327982613207565b91508190509392505050565b7f646174613a6170706c69636174696f6e2f6a736f6e3b6261736536342c000000600082015250565b60006132bb601d836129c5565b91506132c682613285565b601d82019050919050565b60006132dc826132ae565b91506132e882846129d0565b915081905092915050565b6000604082019050818103600083015261330d818561221d565b90508181036020830152613321818461221d565b90509392505050565b7f45524337323155524953746f726167653a2055524920736574206f66206e6f6e60008201527f6578697374656e7420746f6b656e000000000000000000000000000000000000602082015250565b6000613386602e836121d1565b91506133918261332a565b604082019050919050565b600060208201905081810360008301526133b581613379565b9050919050565b60006020601f8301049050919050565b600082821b905092915050565b6000600883026134097fffffffffffffffffffffffffffffffffffffffffffffffffffffffffffffffff826133cc565b61341386836133cc565b95508019841693508086168417925050509392505050565b6000819050919050565b600061345061344b61344684612278565b61342b565b612278565b9050919050565b6000819050919050565b61346a83613435565b61347e61347682613457565b8484546133d9565b825550505050565b600090565b613493613486565b61349e818484613461565b505050565b5b818110156134c2576134b760008261348b565b6001810190506134a4565b5050565b601f821115613507576134d881612f7f565b6134e1846133bc565b810160208510156134f0578190505b6135046134fc856133bc565b8301826134a3565b50505b505050565b600082821c905092915050565b600061352a6000198460080261350c565b1980831691505092915050565b60006135438383613519565b9150826002028217905092915050565b61355c826121c6565b67ffffffffffffffff811115613575576135746124c3565b5b61357f82546126e0565b61358a8282856134c6565b600060209050601f8311600181146135bd57600084156135ab578287015190505b6135b58582613537565b86555061361d565b601f1984166135cb86612f7f565b60005b828110156135f3578489015182556001820191506020850194506020810190506135ce565b86831015613610578489015161360c601f891682613519565b8355505b6001600288020188555050505b505050505050565b6000606082019050818103600083015261363f818661221d565b905061364e6020830185612423565b61365b604083018461230d565b949350505050565b600081519050919050565b600082825260208201905092915050565b600061368a82613663565b613694818561366e565b93506136a48185602086016121e2565b6136ad8161220c565b840191505092915050565b60006080820190506136cd600083018761230d565b6136da602083018661230d565b6136e76040830185612423565b81810360608301526136f9818461367f565b905095945050505050565b60008151905061371381612137565b92915050565b60006020828403121561372f5761372e612101565b5b600061373d84828501613704565b91505092915050565b600061375182612278565b91507fffffffffffffffffffffffffffffffffffffffffffffffffffffffffffffffff820361378357613782612ba3565b5b600182019050919050565b600061379982612278565b91506137a483612278565b9250826137b4576137b3612da6565b5b828204905092915050565b60006137cb82846129d0565b915081905092915050565b60006137e182612278565b91506137ec83612278565b92508282026137fa81612278565b9150828204841483151761381157613810612ba3565b5b5092915050565b7f4552433732313a206d696e7420746f20746865207a65726f2061646472657373600082015250565b600061384e6020836121d1565b915061385982613818565b602082019050919050565b6000602082019050818103600083015261387d81613841565b9050919050565b7f4552433732313a20746f6b656e20616c7265616479206d696e74656400000000600082015250565b60006138ba601c836121d1565b91506138c582613884565b602082019050919050565b600060208201905081810360008301526138e9816138ad565b905091905056fe416e204e465420772f20494420257320686173206265656e206d696e74656420746f2025734142434445464748494a4b4c4d4e4f505152535455565758595a6162636465666768696a6b6c6d6e6f707172737475767778797a303132333435363738392b2fa2646970667358221220d5233b9c9d279e9d9c78a3b0e21aea90935071b004b89bb61f440eba912a1baf64736f6c634300081100333c73766720786d6c6e733d27687474703a2f2f7777772e77332e6f72672f323030302f73766727207072657365727665417370656374526174696f3d27784d696e594d696e206d656574272076696577426f783d273020302033353020333530273e3c7374796c653e2e62617365207b2066696c6c3a2077686974653b20666f6e742d66616d696c793a2073657269663b20666f6e742d73697a653a20323470783b207d3c2f7374796c653e3c726563742077696474683d273130302527206865696768743d2731303025272066696c6c3d2727202f3e3c7465787420783d273530252720793d273530252720636c6173733d27626173652720646f6d696e616e742d626173656c696e653d276d6964646c652720746578742d616e63686f723d276d6964646c65273e",
  "linkReferences": {},
  "deployedLinkReferences": {}
}